{
  "_format": "hh-sol-artifact-1",
  "contractName": "ShortPos",
  "sourceName": "contracts/ShortPos.sol",
  "abi": [
    {
      "inputs": [
        {
          "internalType": "address",
          "name": "_shortToken",
          "type": "address"
        },
        {
          "internalType": "address",
          "name": "_tectonic",
          "type": "address"
        },
        {
          "internalType": "address",
          "name": "_vvs",
          "type": "address"
        },
        {
          "internalType": "address",
          "name": "_oracleAddress",
          "type": "address"
        }
      ],
      "stateMutability": "nonpayable",
      "type": "constructor"
    },
    {
      "anonymous": false,
      "inputs": [
        {
          "indexed": true,
          "internalType": "address",
          "name": "user",
          "type": "address"
        },
        {
          "components": [
            {
              "internalType": "uint256",
              "name": "id",
              "type": "uint256"
            },
            {
              "internalType": "address",
              "name": "shortToken",
              "type": "address"
            },
            {
              "internalType": "address",
              "name": "collateralToken",
              "type": "address"
            },
            {
              "internalType": "uint256",
              "name": "shortTokenAmount",
              "type": "uint256"
            },
            {
              "internalType": "uint256",
              "name": "collateralAmount",
              "type": "uint256"
            },
            {
              "internalType": "uint256",
              "name": "tCollateralAmount",
              "type": "uint256"
            },
            {
              "internalType": "uint256",
              "name": "certificateTokenAmount",
              "type": "uint256"
            }
          ],
          "indexed": false,
          "internalType": "struct ShortPos.Order",
          "name": "order",
          "type": "tuple"
        }
      ],
      "name": "CreateShort",
      "type": "event"
    },
    {
      "anonymous": false,
      "inputs": [
        {
          "indexed": true,
          "internalType": "address",
          "name": "previousOwner",
          "type": "address"
        },
        {
          "indexed": true,
          "internalType": "address",
          "name": "newOwner",
          "type": "address"
        }
      ],
      "name": "OwnershipTransferred",
      "type": "event"
    },
    {
      "anonymous": false,
      "inputs": [
        {
          "indexed": true,
          "internalType": "address",
          "name": "user",
          "type": "address"
        },
        {
          "indexed": false,
          "internalType": "uint256",
          "name": "orderId",
          "type": "uint256"
        }
      ],
      "name": "RedeemShort",
      "type": "event"
    },
    {
      "inputs": [
        {
          "internalType": "address",
          "name": "",
          "type": "address"
        },
        {
          "internalType": "uint256",
          "name": "",
          "type": "uint256"
        }
      ],
      "name": "OrdersIdMapping",
      "outputs": [
        {
          "internalType": "uint256",
          "name": "id",
          "type": "uint256"
        },
        {
          "internalType": "address",
          "name": "shortToken",
          "type": "address"
        },
        {
          "internalType": "address",
          "name": "collateralToken",
          "type": "address"
        },
        {
          "internalType": "uint256",
          "name": "shortTokenAmount",
          "type": "uint256"
        },
        {
          "internalType": "uint256",
          "name": "collateralAmount",
          "type": "uint256"
        },
        {
          "internalType": "uint256",
          "name": "tCollateralAmount",
          "type": "uint256"
        },
        {
          "internalType": "uint256",
          "name": "certificateTokenAmount",
          "type": "uint256"
        }
      ],
      "stateMutability": "view",
      "type": "function"
    },
    {
      "inputs": [
        {
          "internalType": "address",
          "name": "",
          "type": "address"
        },
        {
          "internalType": "uint256",
          "name": "",
          "type": "uint256"
        }
      ],
      "name": "OrdersMapping",
      "outputs": [
        {
          "internalType": "uint256",
          "name": "id",
          "type": "uint256"
        },
        {
          "internalType": "address",
          "name": "shortToken",
          "type": "address"
        },
        {
          "internalType": "address",
          "name": "collateralToken",
          "type": "address"
        },
        {
          "internalType": "uint256",
          "name": "shortTokenAmount",
          "type": "uint256"
        },
        {
          "internalType": "uint256",
          "name": "collateralAmount",
          "type": "uint256"
        },
        {
          "internalType": "uint256",
          "name": "tCollateralAmount",
          "type": "uint256"
        },
        {
          "internalType": "uint256",
          "name": "certificateTokenAmount",
          "type": "uint256"
        }
      ],
      "stateMutability": "view",
      "type": "function"
    },
    {
      "inputs": [
        {
          "internalType": "address[][]",
          "name": "_tokens",
          "type": "address[][]"
        }
      ],
      "name": "_initialize",
      "outputs": [],
      "stateMutability": "nonpayable",
      "type": "function"
    },
    {
      "inputs": [
        {
          "internalType": "address",
          "name": "_shortToken",
          "type": "address"
        },
        {
          "internalType": "uint256",
          "name": "_shortAmount",
          "type": "uint256"
        },
        {
          "internalType": "address",
          "name": "collateralToken",
          "type": "address"
        }
      ],
      "name": "createShortPos",
      "outputs": [],
      "stateMutability": "payable",
      "type": "function"
    },
    {
      "inputs": [
        {
          "internalType": "address",
          "name": "_user",
          "type": "address"
        }
      ],
      "name": "getAllOrdersByUser",
      "outputs": [
        {
          "components": [
            {
              "internalType": "uint256",
              "name": "id",
              "type": "uint256"
            },
            {
              "internalType": "address",
              "name": "shortToken",
              "type": "address"
            },
            {
              "internalType": "address",
              "name": "collateralToken",
              "type": "address"
            },
            {
              "internalType": "uint256",
              "name": "shortTokenAmount",
              "type": "uint256"
            },
            {
              "internalType": "uint256",
              "name": "collateralAmount",
              "type": "uint256"
            },
            {
              "internalType": "uint256",
              "name": "tCollateralAmount",
              "type": "uint256"
            },
            {
              "internalType": "uint256",
              "name": "certificateTokenAmount",
              "type": "uint256"
            }
          ],
          "internalType": "struct ShortPos.Order[]",
          "name": "",
          "type": "tuple[]"
        }
      ],
      "stateMutability": "view",
      "type": "function"
    },
    {
      "inputs": [
        {
          "internalType": "uint256",
          "name": "",
          "type": "uint256"
        }
      ],
      "name": "markets",
      "outputs": [
        {
          "internalType": "address",
          "name": "",
          "type": "address"
        }
      ],
      "stateMutability": "view",
      "type": "function"
    },
    {
      "inputs": [
        {
          "internalType": "address",
          "name": "",
          "type": "address"
        }
      ],
      "name": "marketsMapping",
      "outputs": [
        {
          "internalType": "address",
          "name": "",
          "type": "address"
        }
      ],
      "stateMutability": "view",
      "type": "function"
    },
    {
      "inputs": [
        {
          "internalType": "address",
          "name": "",
          "type": "address"
        }
      ],
      "name": "orderIds",
      "outputs": [
        {
          "internalType": "uint256",
          "name": "",
          "type": "uint256"
        }
      ],
      "stateMutability": "view",
      "type": "function"
    },
    {
      "inputs": [],
      "name": "owner",
      "outputs": [
        {
          "internalType": "address",
          "name": "",
          "type": "address"
        }
      ],
      "stateMutability": "view",
      "type": "function"
    },
    {
      "inputs": [
        {
          "internalType": "uint256",
          "name": "orderId",
          "type": "uint256"
        }
      ],
      "name": "redeem",
      "outputs": [],
      "stateMutability": "nonpayable",
      "type": "function"
    },
    {
      "inputs": [],
      "name": "renounceOwnership",
      "outputs": [],
      "stateMutability": "nonpayable",
      "type": "function"
    },
    {
      "inputs": [],
      "name": "shortToken",
      "outputs": [
        {
          "internalType": "contract Short",
          "name": "",
          "type": "address"
        }
      ],
      "stateMutability": "view",
      "type": "function"
    },
    {
      "inputs": [
        {
          "internalType": "address",
          "name": "newOwner",
          "type": "address"
        }
      ],
      "name": "transferOwnership",
      "outputs": [],
      "stateMutability": "nonpayable",
      "type": "function"
    },
    {
      "stateMutability": "payable",
      "type": "receive"
    }
  ],
  "bytecode": "0x60a06040523480156200001157600080fd5b506040516200419e3803806200419e83398181016040528101906200003791906200023e565b620000576200004b6200015b60201b60201c565b6200016360201b60201c565b8373ffffffffffffffffffffffffffffffffffffffff1660808173ffffffffffffffffffffffffffffffffffffffff1660601b8152505082600760006101000a81548173ffffffffffffffffffffffffffffffffffffffff021916908373ffffffffffffffffffffffffffffffffffffffff16021790555081600660006101000a81548173ffffffffffffffffffffffffffffffffffffffff021916908373ffffffffffffffffffffffffffffffffffffffff16021790555080600860006101000a81548173ffffffffffffffffffffffffffffffffffffffff021916908373ffffffffffffffffffffffffffffffffffffffff16021790555050505050620002f8565b600033905090565b60008060009054906101000a900473ffffffffffffffffffffffffffffffffffffffff169050816000806101000a81548173ffffffffffffffffffffffffffffffffffffffff021916908373ffffffffffffffffffffffffffffffffffffffff1602179055508173ffffffffffffffffffffffffffffffffffffffff168173ffffffffffffffffffffffffffffffffffffffff167f8be0079c531659141344cd1fd0a4f28419497f9722a3daafe3b4186f6b6457e060405160405180910390a35050565b6000815190506200023881620002de565b92915050565b600080600080608085870312156200025557600080fd5b6000620002658782880162000227565b9450506020620002788782880162000227565b93505060406200028b8782880162000227565b92505060606200029e8782880162000227565b91505092959194509250565b6000620002b782620002be565b9050919050565b600073ffffffffffffffffffffffffffffffffffffffff82169050919050565b620002e981620002aa565b8114620002f557600080fd5b50565b60805160601c613e796200032560003960008181610baa015281816112f70152611de50152613e796000f3fe6080604052600436106100c65760003560e01c80638da5cb5b1161007f578063db006a7511610059578063db006a7514610296578063e3065da7146102bf578063f2fde38b146102ea578063f421a5ab14610313576100cd565b80638da5cb5b146101eb57806398dbb50614610216578063b1283e7714610259576100cd565b8063162133d9146100d2578063266f3156146100ee57806331757109146101315780634edda6e21461016e578063715018a61461019757806380e7b061146101ae576100cd565b366100cd57005b600080fd5b6100ec60048036038101906100e79190612cc3565b610350565b005b3480156100fa57600080fd5b5061011560048036038101906101109190612c87565b610c94565b604051610128979695949392919061361a565b60405180910390f35b34801561013d57600080fd5b5061015860048036038101906101539190612c5e565b610d33565b6040516101659190613485565b60405180910390f35b34801561017a57600080fd5b5061019560048036038101906101909190612d12565b610eaf565b005b3480156101a357600080fd5b506101ac611095565b005b3480156101ba57600080fd5b506101d560048036038101906101d09190612c5e565b6110a9565b6040516101e291906135ff565b60405180910390f35b3480156101f757600080fd5b506102006110c1565b60405161020d9190613343565b60405180910390f35b34801561022257600080fd5b5061023d60048036038101906102389190612c87565b6110ea565b604051610250979695949392919061361a565b60405180910390f35b34801561026557600080fd5b50610280600480360381019061027b9190612dc1565b611179565b60405161028d9190613343565b60405180910390f35b3480156102a257600080fd5b506102bd60048036038101906102b89190612dc1565b6111b8565b005b3480156102cb57600080fd5b506102d4611de3565b6040516102e191906134a7565b60405180910390f35b3480156102f657600080fd5b50610311600480360381019061030c9190612c5e565b611e07565b005b34801561031f57600080fd5b5061033a60048036038101906103359190612c5e565b611e8b565b6040516103479190613343565b60405180910390f35b6000600260008573ffffffffffffffffffffffffffffffffffffffff1673ffffffffffffffffffffffffffffffffffffffff16815260200190815260200160002060009054906101000a900473ffffffffffffffffffffffffffffffffffffffff1690506000600260008473ffffffffffffffffffffffffffffffffffffffff1673ffffffffffffffffffffffffffffffffffffffff16815260200190815260200160002060009054906101000a900473ffffffffffffffffffffffffffffffffffffffff1690506000600860009054906101000a900473ffffffffffffffffffffffffffffffffffffffff1673ffffffffffffffffffffffffffffffffffffffff1663fc57d4df600260008973ffffffffffffffffffffffffffffffffffffffff1673ffffffffffffffffffffffffffffffffffffffff16815260200190815260200160002060009054906101000a900473ffffffffffffffffffffffffffffffffffffffff166040518263ffffffff1660e01b81526004016104d49190613343565b60206040518083038186803b1580156104ec57600080fd5b505afa158015610500573d6000803e3d6000fd5b505050506040513d601f19601f820116820180604052508101906105249190612dea565b90506000600860009054906101000a900473ffffffffffffffffffffffffffffffffffffffff1673ffffffffffffffffffffffffffffffffffffffff1663fc57d4df846040518263ffffffff1660e01b81526004016105839190613343565b60206040518083038186803b15801561059b57600080fd5b505afa1580156105af573d6000803e3d6000fd5b505050506040513d601f19601f820116820180604052508101906105d39190612dea565b9050600061060f8261060160026105f3878c611ebe90919063ffffffff16565b611ebe90919063ffffffff16565b611ed490919063ffffffff16565b9050600061061e858884611eea565b905060008673ffffffffffffffffffffffffffffffffffffffff1663c37f68e2306040518263ffffffff1660e01b815260040161065b9190613343565b60806040518083038186803b15801561067357600080fd5b505afa158015610687573d6000803e3d6000fd5b505050506040513d601f19601f820116820180604052508101906106ab9190612e62565b509250505060008773ffffffffffffffffffffffffffffffffffffffff1663c5ebeaec8b6040518263ffffffff1660e01b81526004016106eb91906135ff565b602060405180830381600087803b15801561070557600080fd5b505af1158015610719573d6000803e3d6000fd5b505050506040513d601f19601f8201168201806040525081019061073d9190612dea565b1461077d576040517f08c379a0000000000000000000000000000000000000000000000000000000008152600401610774906135a4565b60405180910390fd5b60008773ffffffffffffffffffffffffffffffffffffffff1663c37f68e2306040518263ffffffff1660e01b81526004016107b89190613343565b60806040518083038186803b1580156107d057600080fd5b505afa1580156107e4573d6000803e3d6000fd5b505050506040513d601f19601f820116820180604052508101906108089190612e62565b5092505050600061082283836122ee90919063ffffffff16565b9050600073__$32fd9025e4ae612d3b910173603572451c$__63d2c838ca8e8e8e6040518463ffffffff1660e01b81526004016108619392919061342c565b60206040518083038186803b15801561087957600080fd5b505af415801561088d573d6000803e3d6000fd5b505050506040513d601f19601f820116820180604052508101906108b19190612dea565b90506108bb612ac1565b60006108c5612304565b9050808260000181815250508e826020019073ffffffffffffffffffffffffffffffffffffffff16908173ffffffffffffffffffffffffffffffffffffffff1681525050838260600181815250508c826040019073ffffffffffffffffffffffffffffffffffffffff16908173ffffffffffffffffffffffffffffffffffffffff168152505087826080018181525050868260a0018181525050828260c0018181525050600460003373ffffffffffffffffffffffffffffffffffffffff1673ffffffffffffffffffffffffffffffffffffffff1681526020019081526020016000208290806001815401808255809150506001900390600052602060002090600702016000909190919091506000820151816000015560208201518160010160006101000a81548173ffffffffffffffffffffffffffffffffffffffff021916908373ffffffffffffffffffffffffffffffffffffffff16021790555060408201518160020160006101000a81548173ffffffffffffffffffffffffffffffffffffffff021916908373ffffffffffffffffffffffffffffffffffffffff160217905550606082015181600301556080820151816004015560a0820151816005015560c08201518160060155505081600560003373ffffffffffffffffffffffffffffffffffffffff1673ffffffffffffffffffffffffffffffffffffffff16815260200190815260200160002060008381526020019081526020016000206000820151816000015560208201518160010160006101000a81548173ffffffffffffffffffffffffffffffffffffffff021916908373ffffffffffffffffffffffffffffffffffffffff16021790555060408201518160020160006101000a81548173ffffffffffffffffffffffffffffffffffffffff021916908373ffffffffffffffffffffffffffffffffffffffff160217905550606082015181600301556080820151816004015560a0820151816005015560c082015181600601559050507f000000000000000000000000000000000000000000000000000000000000000073ffffffffffffffffffffffffffffffffffffffff166340c10f1933856040518363ffffffff1660e01b8152600401610c03929190613403565b600060405180830381600087803b158015610c1d57600080fd5b505af1158015610c31573d6000803e3d6000fd5b505050503373ffffffffffffffffffffffffffffffffffffffff167f1cb0eb76e43cafa3a140122865adacd978e25f0fcb54c798645643c1fde25dd583604051610c7b91906135e4565b60405180910390a2505050505050505050505050505050565b60046020528160005260406000208181548110610cb057600080fd5b9060005260206000209060070201600091509150508060000154908060010160009054906101000a900473ffffffffffffffffffffffffffffffffffffffff16908060020160009054906101000a900473ffffffffffffffffffffffffffffffffffffffff16908060030154908060040154908060050154908060060154905087565b6060600460008373ffffffffffffffffffffffffffffffffffffffff1673ffffffffffffffffffffffffffffffffffffffff168152602001908152602001600020805480602002602001604051908101604052809291908181526020016000905b82821015610ea457838290600052602060002090600702016040518060e0016040529081600082015481526020016001820160009054906101000a900473ffffffffffffffffffffffffffffffffffffffff1673ffffffffffffffffffffffffffffffffffffffff1673ffffffffffffffffffffffffffffffffffffffff1681526020016002820160009054906101000a900473ffffffffffffffffffffffffffffffffffffffff1673ffffffffffffffffffffffffffffffffffffffff1673ffffffffffffffffffffffffffffffffffffffff16815260200160038201548152602001600482015481526020016005820154815260200160068201548152505081526020019060010190610d94565b505050509050919050565b610eb76123a9565b60005b82829050811015611090576000838383818110610f00577f4e487b7100000000000000000000000000000000000000000000000000000000600052603260045260246000fd5b9050602002810190610f12919061376d565b6000818110610f4a577f4e487b7100000000000000000000000000000000000000000000000000000000600052603260045260246000fd5b9050602002016020810190610f5f9190612c5e565b90506000848484818110610f9c577f4e487b7100000000000000000000000000000000000000000000000000000000600052603260045260246000fd5b9050602002810190610fae919061376d565b6001818110610fe6577f4e487b7100000000000000000000000000000000000000000000000000000000600052603260045260246000fd5b9050602002016020810190610ffb9190612c5e565b905080600260008473ffffffffffffffffffffffffffffffffffffffff1673ffffffffffffffffffffffffffffffffffffffff16815260200190815260200160002060006101000a81548173ffffffffffffffffffffffffffffffffffffffff021916908373ffffffffffffffffffffffffffffffffffffffff1602179055505050808061108890613b17565b915050610eba565b505050565b61109d6123a9565b6110a76000612427565b565b60036020528060005260406000206000915090505481565b60008060009054906101000a900473ffffffffffffffffffffffffffffffffffffffff16905090565b6005602052816000526040600020602052806000526040600020600091509150508060000154908060010160009054906101000a900473ffffffffffffffffffffffffffffffffffffffff16908060020160009054906101000a900473ffffffffffffffffffffffffffffffffffffffff16908060030154908060040154908060050154908060060154905087565b6001818154811061118957600080fd5b906000526020600020016000915054906101000a900473ffffffffffffffffffffffffffffffffffffffff1681565b6000600560003373ffffffffffffffffffffffffffffffffffffffff1673ffffffffffffffffffffffffffffffffffffffff16815260200190815260200160002060008381526020019081526020016000206040518060e0016040529081600082015481526020016001820160009054906101000a900473ffffffffffffffffffffffffffffffffffffffff1673ffffffffffffffffffffffffffffffffffffffff1673ffffffffffffffffffffffffffffffffffffffff1681526020016002820160009054906101000a900473ffffffffffffffffffffffffffffffffffffffff1673ffffffffffffffffffffffffffffffffffffffff1673ffffffffffffffffffffffffffffffffffffffff16815260200160038201548152602001600482015481526020016005820154815260200160068201548152505090507f000000000000000000000000000000000000000000000000000000000000000073ffffffffffffffffffffffffffffffffffffffff16639dc29fac338360c001516040518363ffffffff1660e01b8152600401611354929190613403565b600060405180830381600087803b15801561136e57600080fd5b505af1158015611382573d6000803e3d6000fd5b505050506000600267ffffffffffffffff8111156113c9577f4e487b7100000000000000000000000000000000000000000000000000000000600052604160045260246000fd5b6040519080825280602002602001820160405280156113f75781602001602082028036833780820191505090505b509050816040015181600081518110611439577f4e487b7100000000000000000000000000000000000000000000000000000000600052603260045260246000fd5b602002602001019073ffffffffffffffffffffffffffffffffffffffff16908173ffffffffffffffffffffffffffffffffffffffff16815250508160200151816001815181106114b2577f4e487b7100000000000000000000000000000000000000000000000000000000600052603260045260246000fd5b602002602001019073ffffffffffffffffffffffffffffffffffffffff16908173ffffffffffffffffffffffffffffffffffffffff16815250506000600660009054906101000a900473ffffffffffffffffffffffffffffffffffffffff1673ffffffffffffffffffffffffffffffffffffffff16631f00ca748460600151846040518363ffffffff1660e01b815260040161154f929190613689565b60006040518083038186803b15801561156757600080fd5b505afa15801561157b573d6000803e3d6000fd5b505050506040513d6000823e3d601f19601f820116820180604052508101906115a49190612d57565b90506115dc836040015130600660009054906101000a900473ffffffffffffffffffffffffffffffffffffffff1686606001516124eb565b60008082600081518110611619577f4e487b7100000000000000000000000000000000000000000000000000000000600052603260045260246000fd5b60200260200101518560c001511015611752576000600660009054906101000a900473ffffffffffffffffffffffffffffffffffffffff1673ffffffffffffffffffffffffffffffffffffffff166338ed17398760c001516000883061012c4261168391906138e6565b6040518663ffffffff1660e01b81526004016116a39594939291906136b9565b600060405180830381600087803b1580156116bd57600080fd5b505af11580156116d1573d6000803e3d6000fd5b505050506040513d6000823e3d601f19601f820116820180604052508101906116fa9190612d57565b9050806001825161170b91906139c7565b81518110611742577f4e487b7100000000000000000000000000000000000000000000000000000000600052603260045260246000fd5b6020026020010151925050611888565b6000600660009054906101000a900473ffffffffffffffffffffffffffffffffffffffff1673ffffffffffffffffffffffffffffffffffffffff16638803dbee87606001518860c00151883061012c426117ac91906138e6565b6040518663ffffffff1660e01b81526004016117cc959493929190613713565b600060405180830381600087803b1580156117e657600080fd5b505af11580156117fa573d6000803e3d6000fd5b505050506040513d6000823e3d601f19601f820116820180604052508101906118239190612d57565b90508560600151925061188481600081518110611869577f4e487b7100000000000000000000000000000000000000000000000000000000600052603260045260246000fd5b602002602001015187606001516122ee90919063ffffffff16565b9150505b6118fb85602001513060026000896020015173ffffffffffffffffffffffffffffffffffffffff1673ffffffffffffffffffffffffffffffffffffffff16815260200190815260200160002060009054906101000a900473ffffffffffffffffffffffffffffffffffffffff16856124eb565b60026000866020015173ffffffffffffffffffffffffffffffffffffffff1673ffffffffffffffffffffffffffffffffffffffff16815260200190815260200160002060009054906101000a900473ffffffffffffffffffffffffffffffffffffffff1673ffffffffffffffffffffffffffffffffffffffff16630e752702836040518263ffffffff1660e01b815260040161199791906135ff565b602060405180830381600087803b1580156119b157600080fd5b505af11580156119c5573d6000803e3d6000fd5b505050506040513d601f19601f820116820180604052508101906119e99190612dea565b506000600760009054906101000a900473ffffffffffffffffffffffffffffffffffffffff1673ffffffffffffffffffffffffffffffffffffffff16634e79238f30600260008a6040015173ffffffffffffffffffffffffffffffffffffffff1673ffffffffffffffffffffffffffffffffffffffff16815260200190815260200160002060009054906101000a900473ffffffffffffffffffffffffffffffffffffffff168960a0015160006040518563ffffffff1660e01b8152600401611ab594939291906133be565b60606040518083038186803b158015611acd57600080fd5b505afa158015611ae1573d6000803e3d6000fd5b505050506040513d601f19601f82011682018060405250810190611b059190612e13565b925050506000866040015173ffffffffffffffffffffffffffffffffffffffff166370a08231306040518263ffffffff1660e01b8152600401611b489190613343565b60206040518083038186803b158015611b6057600080fd5b505afa158015611b74573d6000803e3d6000fd5b505050506040513d601f19601f82011682018060405250810190611b989190612dea565b905060026000886040015173ffffffffffffffffffffffffffffffffffffffff1673ffffffffffffffffffffffffffffffffffffffff16815260200190815260200160002060009054906101000a900473ffffffffffffffffffffffffffffffffffffffff1673ffffffffffffffffffffffffffffffffffffffff1663db006a75611c306305f5e10085611ed490919063ffffffff16565b8960a00151611c3f91906139c7565b6040518263ffffffff1660e01b8152600401611c5b91906135ff565b602060405180830381600087803b158015611c7557600080fd5b505af1158015611c89573d6000803e3d6000fd5b505050506040513d601f19601f82011682018060405250810190611cad9190612dea565b506000876040015173ffffffffffffffffffffffffffffffffffffffff166370a08231306040518263ffffffff1660e01b8152600401611ced9190613343565b60206040518083038186803b158015611d0557600080fd5b505afa158015611d19573d6000803e3d6000fd5b505050506040513d601f19601f82011682018060405250810190611d3d9190612dea565b905060008282611d4d91906139c7565b9050611d89338683611d5f91906138e6565b8b6040015173ffffffffffffffffffffffffffffffffffffffff166125cf9092919063ffffffff16565b3373ffffffffffffffffffffffffffffffffffffffff167f041beb6e8004c286fc1ba773e761bee83a67e5262558fa95189e18296799eee58b604051611dcf91906135ff565b60405180910390a250505050505050505050565b7f000000000000000000000000000000000000000000000000000000000000000081565b611e0f6123a9565b600073ffffffffffffffffffffffffffffffffffffffff168173ffffffffffffffffffffffffffffffffffffffff161415611e7f576040517f08c379a0000000000000000000000000000000000000000000000000000000008152600401611e76906134e4565b60405180910390fd5b611e8881612427565b50565b60026020528060005260406000206000915054906101000a900473ffffffffffffffffffffffffffffffffffffffff1681565b60008183611ecc919061396d565b905092915050565b60008183611ee2919061393c565b905092915050565b6000611ef8833330856124eb565b611f253330848673ffffffffffffffffffffffffffffffffffffffff16612655909392919063ffffffff16565b611f31833086856124eb565b6001849080600181540180825580915050600190039060005260206000200160009091909190916101000a81548173ffffffffffffffffffffffffffffffffffffffff021916908373ffffffffffffffffffffffffffffffffffffffff1602179055506000600760009054906101000a900473ffffffffffffffffffffffffffffffffffffffff1673ffffffffffffffffffffffffffffffffffffffff1663c299823860016040518263ffffffff1660e01b8152600401611ff29190613463565b600060405180830381600087803b15801561200c57600080fd5b505af1158015612020573d6000803e3d6000fd5b505050506040513d6000823e3d601f19601f820116820180604052508101906120499190612d57565b905060005b81518110156120e1576000828281518110612092577f4e487b7100000000000000000000000000000000000000000000000000000000600052603260045260246000fd5b6020026020010151146120ce577f4e487b7100000000000000000000000000000000000000000000000000000000600052600160045260246000fd5b80806120d990613b17565b91505061204e565b5060008573ffffffffffffffffffffffffffffffffffffffff1663c37f68e2306040518263ffffffff1660e01b815260040161211d9190613343565b60806040518083038186803b15801561213557600080fd5b505afa158015612149573d6000803e3d6000fd5b505050506040513d601f19601f8201168201806040525081019061216d9190612e62565b505091505060008673ffffffffffffffffffffffffffffffffffffffff1663a0712d68866040518263ffffffff1660e01b81526004016121ad91906135ff565b602060405180830381600087803b1580156121c757600080fd5b505af11580156121db573d6000803e3d6000fd5b505050506040513d601f19601f820116820180604052508101906121ff9190612dea565b1461223f576040517f08c379a000000000000000000000000000000000000000000000000000000000815260040161223690613524565b60405180910390fd5b60008673ffffffffffffffffffffffffffffffffffffffff1663c37f68e2306040518263ffffffff1660e01b815260040161227a9190613343565b60806040518083038186803b15801561229257600080fd5b505afa1580156122a6573d6000803e3d6000fd5b505050506040513d601f19601f820116820180604052508101906122ca9190612e62565b50509150506122e282826122ee90919063ffffffff16565b93505050509392505050565b600081836122fc91906139c7565b905092915050565b6000806001600360003373ffffffffffffffffffffffffffffffffffffffff1673ffffffffffffffffffffffffffffffffffffffff1681526020019081526020016000208190559050600360003373ffffffffffffffffffffffffffffffffffffffff1673ffffffffffffffffffffffffffffffffffffffff168152602001908152602001600020600081548092919061239d90613b17565b91905055508091505090565b6123b16126de565b73ffffffffffffffffffffffffffffffffffffffff166123cf6110c1565b73ffffffffffffffffffffffffffffffffffffffff1614612425576040517f08c379a000000000000000000000000000000000000000000000000000000000815260040161241c90613544565b60405180910390fd5b565b60008060009054906101000a900473ffffffffffffffffffffffffffffffffffffffff169050816000806101000a81548173ffffffffffffffffffffffffffffffffffffffff021916908373ffffffffffffffffffffffffffffffffffffffff1602179055508173ffffffffffffffffffffffffffffffffffffffff168173ffffffffffffffffffffffffffffffffffffffff167f8be0079c531659141344cd1fd0a4f28419497f9722a3daafe3b4186f6b6457e060405160405180910390a35050565b808473ffffffffffffffffffffffffffffffffffffffff1663dd62ed3e85856040518363ffffffff1660e01b815260040161252792919061335e565b60206040518083038186803b15801561253f57600080fd5b505afa158015612553573d6000803e3d6000fd5b505050506040513d601f19601f820116820180604052508101906125779190612dea565b10156125c9576125c8827fffffffffffffffffffffffffffffffffffffffffffffffffffffffffffffffff8673ffffffffffffffffffffffffffffffffffffffff166126e69092919063ffffffff16565b5b50505050565b6126508363a9059cbb60e01b84846040516024016125ee929190613403565b604051602081830303815290604052907bffffffffffffffffffffffffffffffffffffffffffffffffffffffff19166020820180517bffffffffffffffffffffffffffffffffffffffffffffffffffffffff8381831617835250505050612844565b505050565b6126d8846323b872dd60e01b85858560405160240161267693929190613387565b604051602081830303815290604052907bffffffffffffffffffffffffffffffffffffffffffffffffffffffff19166020820180517bffffffffffffffffffffffffffffffffffffffffffffffffffffffff8381831617835250505050612844565b50505050565b600033905090565b600081148061277f575060008373ffffffffffffffffffffffffffffffffffffffff1663dd62ed3e30856040518363ffffffff1660e01b815260040161272d92919061335e565b60206040518083038186803b15801561274557600080fd5b505afa158015612759573d6000803e3d6000fd5b505050506040513d601f19601f8201168201806040525081019061277d9190612dea565b145b6127be576040517f08c379a00000000000000000000000000000000000000000000000000000000081526004016127b5906135c4565b60405180910390fd5b61283f8363095ea7b360e01b84846040516024016127dd929190613403565b604051602081830303815290604052907bffffffffffffffffffffffffffffffffffffffffffffffffffffffff19166020820180517bffffffffffffffffffffffffffffffffffffffffffffffffffffffff8381831617835250505050612844565b505050565b60006128a6826040518060400160405280602081526020017f5361666545524332303a206c6f772d6c6576656c2063616c6c206661696c65648152508573ffffffffffffffffffffffffffffffffffffffff1661290b9092919063ffffffff16565b905060008151111561290657808060200190518101906128c69190612d98565b612905576040517f08c379a00000000000000000000000000000000000000000000000000000000081526004016128fc90613584565b60405180910390fd5b5b505050565b606061291a8484600085612923565b90509392505050565b606082471015612968576040517f08c379a000000000000000000000000000000000000000000000000000000000815260040161295f90613504565b60405180910390fd5b61297185612a37565b6129b0576040517f08c379a00000000000000000000000000000000000000000000000000000000081526004016129a790613564565b60405180910390fd5b6000808673ffffffffffffffffffffffffffffffffffffffff1685876040516129d9919061332c565b60006040518083038185875af1925050503d8060008114612a16576040519150601f19603f3d011682016040523d82523d6000602084013e612a1b565b606091505b5091509150612a2b828286612a5a565b92505050949350505050565b6000808273ffffffffffffffffffffffffffffffffffffffff163b119050919050565b60608315612a6a57829050612aba565b600083511115612a7d5782518084602001fd5b816040517f08c379a0000000000000000000000000000000000000000000000000000000008152600401612ab191906134c2565b60405180910390fd5b9392505050565b6040518060e0016040528060008152602001600073ffffffffffffffffffffffffffffffffffffffff168152602001600073ffffffffffffffffffffffffffffffffffffffff168152602001600081526020016000815260200160008152602001600081525090565b6000612b3d612b38846137e9565b6137c4565b90508083825260208201905082856020860282011115612b5c57600080fd5b60005b85811015612b8c5781612b728882612c49565b845260208401935060208301925050600181019050612b5f565b5050509392505050565b600081359050612ba581613dfe565b92915050565b60008083601f840112612bbd57600080fd5b8235905067ffffffffffffffff811115612bd657600080fd5b602083019150836020820283011115612bee57600080fd5b9250929050565b600082601f830112612c0657600080fd5b8151612c16848260208601612b2a565b91505092915050565b600081519050612c2e81613e15565b92915050565b600081359050612c4381613e2c565b92915050565b600081519050612c5881613e2c565b92915050565b600060208284031215612c7057600080fd5b6000612c7e84828501612b96565b91505092915050565b60008060408385031215612c9a57600080fd5b6000612ca885828601612b96565b9250506020612cb985828601612c34565b9150509250929050565b600080600060608486031215612cd857600080fd5b6000612ce686828701612b96565b9350506020612cf786828701612c34565b9250506040612d0886828701612b96565b9150509250925092565b60008060208385031215612d2557600080fd5b600083013567ffffffffffffffff811115612d3f57600080fd5b612d4b85828601612bab565b92509250509250929050565b600060208284031215612d6957600080fd5b600082015167ffffffffffffffff811115612d8357600080fd5b612d8f84828501612bf5565b91505092915050565b600060208284031215612daa57600080fd5b6000612db884828501612c1f565b91505092915050565b600060208284031215612dd357600080fd5b6000612de184828501612c34565b91505092915050565b600060208284031215612dfc57600080fd5b6000612e0a84828501612c49565b91505092915050565b600080600060608486031215612e2857600080fd5b6000612e3686828701612c49565b9350506020612e4786828701612c49565b9250506040612e5886828701612c49565b9150509250925092565b60008060008060808587031215612e7857600080fd5b6000612e8687828801612c49565b9450506020612e9787828801612c49565b9350506040612ea887828801612c49565b9250506060612eb987828801612c49565b91505092959194509250565b6000612ed18383612ef5565b60208301905092915050565b6000612ee983836131e3565b60e08301905092915050565b612efe81613a1b565b82525050565b612f0d81613a1b565b82525050565b612f1c81613a1b565b82525050565b6000612f2d8261384a565b612f3781856138a8565b9350612f4283613815565b8060005b83811015612f73578151612f5a8882612ec5565b9750612f6583613881565b925050600181019050612f46565b5085935050505092915050565b6000612f8b82613855565b612f9581856138a8565b9350612fa083613825565b8060005b83811015612fd857612fb582613bed565b612fbf8882612ec5565b9750612fca8361388e565b925050600181019050612fa4565b5085935050505092915050565b6000612ff082613860565b612ffa81856138b9565b93506130058361383a565b8060005b8381101561303657815161301d8882612edd565b97506130288361389b565b925050600181019050613009565b5085935050505092915050565b600061304e8261386b565b61305881856138ca565b9350613068818560208601613a99565b80840191505092915050565b61307d81613a63565b82525050565b61308c81613a87565b82525050565b600061309d82613876565b6130a781856138d5565b93506130b7818560208601613a99565b6130c081613c00565b840191505092915050565b60006130d86026836138d5565b91506130e382613c1e565b604082019050919050565b60006130fb6026836138d5565b915061310682613c6d565b604082019050919050565b600061311e600b836138d5565b915061312982613cbc565b602082019050919050565b60006131416020836138d5565b915061314c82613ce5565b602082019050919050565b6000613164601d836138d5565b915061316f82613d0e565b602082019050919050565b6000613187602a836138d5565b915061319282613d37565b604082019050919050565b60006131aa600d836138d5565b91506131b582613d86565b602082019050919050565b60006131cd6036836138d5565b91506131d882613daf565b604082019050919050565b60e0820160008201516131f960008501826132ff565b50602082015161320c6020850182612ef5565b50604082015161321f6040850182612ef5565b50606082015161323260608501826132ff565b50608082015161324560808501826132ff565b5060a082015161325860a08501826132ff565b5060c082015161326b60c08501826132ff565b50505050565b60e08201600082015161328760008501826132ff565b50602082015161329a6020850182612ef5565b5060408201516132ad6040850182612ef5565b5060608201516132c060608501826132ff565b5060808201516132d360808501826132ff565b5060a08201516132e660a08501826132ff565b5060c08201516132f960c08501826132ff565b50505050565b61330881613a59565b82525050565b61331781613a59565b82525050565b61332681613a59565b82525050565b60006133388284613043565b915081905092915050565b60006020820190506133586000830184612f04565b92915050565b60006040820190506133736000830185612f04565b6133806020830184612f04565b9392505050565b600060608201905061339c6000830186612f04565b6133a96020830185612f04565b6133b6604083018461330e565b949350505050565b60006080820190506133d36000830187612f04565b6133e06020830186612f04565b6133ed604083018561330e565b6133fa6060830184613083565b95945050505050565b60006040820190506134186000830185612f04565b613425602083018461330e565b9392505050565b60006060820190506134416000830186612f13565b61344e602083018561331d565b61345b6040830184612f13565b949350505050565b6000602082019050818103600083015261347d8184612f80565b905092915050565b6000602082019050818103600083015261349f8184612fe5565b905092915050565b60006020820190506134bc6000830184613074565b92915050565b600060208201905081810360008301526134dc8184613092565b905092915050565b600060208201905081810360008301526134fd816130cb565b9050919050565b6000602082019050818103600083015261351d816130ee565b9050919050565b6000602082019050818103600083015261353d81613111565b9050919050565b6000602082019050818103600083015261355d81613134565b9050919050565b6000602082019050818103600083015261357d81613157565b9050919050565b6000602082019050818103600083015261359d8161317a565b9050919050565b600060208201905081810360008301526135bd8161319d565b9050919050565b600060208201905081810360008301526135dd816131c0565b9050919050565b600060e0820190506135f96000830184613271565b92915050565b6000602082019050613614600083018461330e565b92915050565b600060e08201905061362f600083018a61330e565b61363c6020830189612f04565b6136496040830188612f04565b613656606083018761330e565b613663608083018661330e565b61367060a083018561330e565b61367d60c083018461330e565b98975050505050505050565b600060408201905061369e600083018561330e565b81810360208301526136b08184612f22565b90509392505050565b600060a0820190506136ce600083018861330e565b6136db6020830187613083565b81810360408301526136ed8186612f22565b90506136fc6060830185612f04565b613709608083018461330e565b9695505050505050565b600060a082019050613728600083018861330e565b613735602083018761330e565b81810360408301526137478186612f22565b90506137566060830185612f04565b613763608083018461330e565b9695505050505050565b6000808335600160200384360303811261378657600080fd5b80840192508235915067ffffffffffffffff8211156137a457600080fd5b6020830192506020820236038313156137bc57600080fd5b509250929050565b60006137ce6137df565b90506137da8282613ae6565b919050565b6000604051905090565b600067ffffffffffffffff82111561380457613803613bbe565b5b602082029050602081019050919050565b6000819050602082019050919050565b60008190508160005260206000209050919050565b6000819050602082019050919050565b600081519050919050565b600081549050919050565b600081519050919050565b600081519050919050565b600081519050919050565b6000602082019050919050565b6000600182019050919050565b6000602082019050919050565b600082825260208201905092915050565b600082825260208201905092915050565b600081905092915050565b600082825260208201905092915050565b60006138f182613a59565b91506138fc83613a59565b9250827fffffffffffffffffffffffffffffffffffffffffffffffffffffffffffffffff0382111561393157613930613b60565b5b828201905092915050565b600061394782613a59565b915061395283613a59565b92508261396257613961613b8f565b5b828204905092915050565b600061397882613a59565b915061398383613a59565b9250817fffffffffffffffffffffffffffffffffffffffffffffffffffffffffffffffff04831182151516156139bc576139bb613b60565b5b828202905092915050565b60006139d282613a59565b91506139dd83613a59565b9250828210156139f0576139ef613b60565b5b828203905092915050565b600073ffffffffffffffffffffffffffffffffffffffff82169050919050565b6000613a2682613a39565b9050919050565b60008115159050919050565b600073ffffffffffffffffffffffffffffffffffffffff82169050919050565b6000819050919050565b6000613a6e82613a75565b9050919050565b6000613a8082613a39565b9050919050565b6000613a9282613a59565b9050919050565b60005b83811015613ab7578082015181840152602081019050613a9c565b83811115613ac6576000848401525b50505050565b6000613adf613ada83613c11565b6139fb565b9050919050565b613aef82613c00565b810181811067ffffffffffffffff82111715613b0e57613b0d613bbe565b5b80604052505050565b6000613b2282613a59565b91507fffffffffffffffffffffffffffffffffffffffffffffffffffffffffffffffff821415613b5557613b54613b60565b5b600182019050919050565b7f4e487b7100000000000000000000000000000000000000000000000000000000600052601160045260246000fd5b7f4e487b7100000000000000000000000000000000000000000000000000000000600052601260045260246000fd5b7f4e487b7100000000000000000000000000000000000000000000000000000000600052604160045260246000fd5b6000613bf98254613acc565b9050919050565b6000601f19601f8301169050919050565b60008160001c9050919050565b7f4f776e61626c653a206e6577206f776e657220697320746865207a65726f206160008201527f6464726573730000000000000000000000000000000000000000000000000000602082015250565b7f416464726573733a20696e73756666696369656e742062616c616e636520666f60008201527f722063616c6c0000000000000000000000000000000000000000000000000000602082015250565b7f6d696e74206661696c6564000000000000000000000000000000000000000000600082015250565b7f4f776e61626c653a2063616c6c6572206973206e6f7420746865206f776e6572600082015250565b7f416464726573733a2063616c6c20746f206e6f6e2d636f6e7472616374000000600082015250565b7f5361666545524332303a204552433230206f7065726174696f6e20646964206e60008201527f6f74207375636365656400000000000000000000000000000000000000000000602082015250565b7f626f72726f77206661696c656400000000000000000000000000000000000000600082015250565b7f5361666545524332303a20617070726f76652066726f6d206e6f6e2d7a65726f60008201527f20746f206e6f6e2d7a65726f20616c6c6f77616e636500000000000000000000602082015250565b613e0781613a1b565b8114613e1257600080fd5b50565b613e1e81613a2d565b8114613e2957600080fd5b50565b613e3581613a59565b8114613e4057600080fd5b5056fea26469706673582212207ab35a6dea4e7d86461eeee597814f241d133ec4d145757b7ef7074e0cd0091164736f6c63430008040033",
  "linkReferences": {
    "contracts/libs/SwapCenter.sol": {
      "SwapCenter": [
        {
          "length": 20,
          "start": 2893
        }
      ]
    }
  },
  "deployedLinkReferences": {
    "contracts/libs/SwapCenter.sol": {
      "SwapCenter": [
        {
          "length": 20,
          "start": 2088
        }
      ]
    }
  }
}